:0A000000D12A0000000000000028D3
:10000A00710DF80DF90D7408F8027508031C750FC7
:10001A00F902F00DF10D0F30FC00710DF80DF90D1C
:10002A007408701C1E28F8027508031C750FF90263
:10003A002328F80775080318750FF907F00DF10D55
:10004A00FC0B122870182F287408F8077508031873
:08005A00750FF9070000080012
:100062008316031314193F281F301105F10071087C
:10007200003A031D3F280130F0000800F00108009B
:1000820083120313C701C8014808123C031D4B2801
:1000920047088E3C031C5728312070080319522848
:1000A20057288312C70A0319C80A45288312123037
:1000B2004802031D5E288F304702031C63287B30F1
:1000C200F000080083161114111C68286528F0013D
:0200D200080024
:1000D400831203138C11470893008316141D73288D
:1000E4006F2883128C19772873288316111B7C2898
:0C00F400F001080011150230F0000800B7
:0E0100008312031342088A004108820008009F
:10010E0083120313FD01F901F8017108700403193C
:10011E00003471087506FA00FA1BFD09FB01F51F84
:10012E009D28F409F509F40A0319F50AF11FA4280C
:10013E00F009F109F00A0319F10A71087504FA00C1
:10014E00FA1BB92805207B18CC28FD1F0034F009B6
:10015E00F109F00A0319F10AF809F909F80A031965
:10016E00F90A0034F51FC828F11BC4287108F900DC
:10017E007008F800F101F001AC28F101F001F00A6D
:10018E000034F109F009FB0AA928F80A0319F90A43
:10019E0074087802031DAC2875087902031DAC287B
:1001AE00F901F801F00A0319F10AF11FAC28000059
:0401BE00FF34080002
:0801C200831603131115080058
:1001CA00831203138C118316911583128C19EE284E
:1001DA00EA281308F1004708003A031DF728831696
:1001EA009116F9288316911283128C11831611160F
:0E01FA0083128C190129FD287108F0000800FD
:0E020800831603139114911C0A29072908007C
:100216004120D03083120313C7006A20831243089B
:10022600C7006A200421D1308312C7006A208312D6
:10023600C701E5207008C400E12083124408F000DD
:020246000800AE
:100248008030831203134406F00080307002031DCF
:100258002F290030430203183A294308003CF000D4
:100268004408031C013EF101F10208004308F000B4
:060278004408F10008003B
:10027E0083120313F8010830FC00700DF80D74089A
:10028E00F80203184C29F8070310F00DFC0B442953
:02029E00080056
:1002A000831203134008003A031D582986100610D4
:1002B0000130F10071080319702971084305F0003D
:1002C0000319642906116529061506140630FD0078
:1002D000FD0B682900000610C00AF10D71105A29A3
:0C02E0004008083A031D7529C001080001
:1002EC004120D03083120313C7006A2083124308C5
:1002FC00C7006A2083124408C7006A20E120080066
:10030C008312031308124308013EF1000030031856
:10031C00013E4407F20022087206031D972971085A
:10032C002106031DDC2900304406031D9F290030E3
:10033C004306031DAF2900302606031DA7290030F4
:10034C002506031DAF2908140130A5000030A600B6
:10035C00C22900304406031DB52900304306031D95
:10036C00C22900302606031DBD2901302506031DB8
:10037C00C2290810A501A601A30A0319A40A88140E
:10038C000630FD00FD0BC829000088100816A10AD4
:10039C000319A20A00302206031DD6293D3021067E
:0E03AC00031DDC290130A1000030A200080072
:1003BA000A3083120313F4000030F5004308F000FA
:1003CA004408F10087207808F0007908F1007008E5
:1003DA00C5007108C6000F307005C5007108C60057
:1003EA000030C6050A30F4000030F5004308F0007A
:1003FA004408F10087207008C3007108C4000A305D
:10040A00F4000030F50087207808F0007908F10040
:10041A000F307005F3007108F4000030F405043061
:10042A00F2007308F0007408F10072080319222A16
:10043A00F00DF10D7010FF3E1B2AF030F005003070
:10044A00F1054508F0044608F1047008C500710872
:04045A00C6000800D0
:10045E00831203134008003A031D372A8610061034
:10046E000130F100710803194F2A71084305F0009D
:10047E000319432A0611442A061506140630FD00F8
:10048E00FD0B472A00000610C00AF10D7110392A23
:0C049E004008083A031D542AC001080061
:1004AA00831203134008003A031D5D2A86100610C2
:1004BA000130F10071080319752A71084305F0002B
:1004CA000319692A06116A2A061506140630FD0060
:1004DA00FD0B6D2A00000610C00AF10D71105F2A8B
:0E04EA004008083A031D7B2A8614C001080052
:1004F800831203134008003A031D842A861006104D
:100508000130F100710803199C2A71084305F000B5
:100518000319902A0611912A061506140630FD00C3
:10052800FD0B942A00000610C00AF10D7110862AEE
:0C0538004008083A031DA12AC001080079
:10054400831203137008F100F0010830FC007108F5
:10055400F40C0318B12AFC0BAA2AF101003403108D
:10056400B62AF40C0318F107F10CF00CFC0BB32AB7
:0205740008007D
:1005760080208A110A128000840AC10A0319C20A5D
:08058600F003031DBB2A08006D
:10058E00831603131413941307168715383083122A
:04059E0094000800BD
:1005A20083120313A0010130A100A201A301A4013F
:1005B200A501A601A030A700F930A8006430A90067
:1005C2007030AA003930AB003230AC002230AD00BE
:1005D200F830AE002030AF003030B0001430831657
:1005E2009300C722073083169C0006309F00073015
:1005F2008500831285018316860183128601831684
:100602008801831288018615B70105181D2B023057
:10061200FB000430FC00BA30FD00FD0B0E2BFC0B7E
:100622000E2BFB0B0E2B000005181D2BA00A04300D
:100632002002031C1D2BA00120080319C42B8518BE
:10064200332B0230FB000430FC00BA30FD00FD0BFE
:10065200282BFC0B282BFB0B282B00008518332B97
:100662000130B7000519462B0230FB000430FC00B4
:10067200BA30FD00FD0B3B2BFC0B3B2BFB0B3B2B4A
:1006820000000519462BFF30B70020080319C42BC0
:1006920037080319C42BB72B3608F000F00CF013FF
:1006A200F00CF013F00CF013F00CF0130A30F4001D
:1006B200A2220F303605F1007108F0077008B80069
:1006C2003708F0077008B8007008C300C401DD21C4
:1006D2007008B80024307002031C702BB80102307D
:1006E200C3003808C4007621C42B83123108F000FD
:1006F200F00CF013F00CF013F00CF013F00CF013FC
:100702000A30F400A2220F303105F1007108F0071F
:100712007008B20037087007F1007108B2003B3070
:100722007102031C952BB2013208003C031C9B2B67
:100732003B30B2003208C300C401DD217008B200B0
:100742000130C3007008C4007621C42B831237081D
:10075200C3000030C31BFF30C400242170087104A1
:100762000319B62BC301C4017621C42B83122008BE
:10077200013A03194D2B2008023A0319762B20085F
:10078200033A0319A72B8312C3010B217008B3008C
:100792000130C3000B217008B1000230C3000B21ED
:1007A2007008B6003308F000F00CF013F00CF013F0
:1007B200F00CF013F00CF0130A30F400A2220F3008
:1007C2003305F10071087007B5003108F000F00C34
:1007D200F013F00CF013F00CF013F00CF0130A30DD
:1007E200F400A2220F303105F10071087007B20047
:1007F2003608F000F00CF013F00CF013F00CF013CC
:10080200F00CF0130A30F400A2220F303605F1008A
:100812007008F1077108B8007108003A031D142C22
:100822000C30B8071A2C0D303802031C1A2C0C306D
:10083200B8023208B4003808BD003508BC000A30DE
:10084200F4003208F0003F217808F0007008BE0082
:100852007008273E84000008C3002F220A30F400EB
:100862003408F0003F210A30F4003F217808F000FC
:100872007008BF007008273E84000008C3007C2275
:100882000A30F4003D08F0003F217808F0007008BB
:10089200BB007008273E84000008C30050210A30C4
:1008A200F4003D08F0003F210A30F4003F217808AF
:1008B200F0007008BA007008003C0318672C3A0870
:1008C200273E84000008C30055226A2CFF30C30073
:1008D20055223C08B9003C08C300C40186210630F9
:1008E200FB001330FC00AD30FD00FD0B762CFC0B41
:0E08F200762CFB0B762C00000000052B7F2CD3
:02400E004A2F37
:00000001FF
